:020000040800F2
:10000000600400200D0200085B1100087D1000084C
:1000100059110008290400088D1200080000000092
:100020000000000000000000000000008111000836
:100030002B040008000000007F1100088311000855
:1000400027020008270200082702000827020008EC
:1000500027020008270200082702000827020008DC
:1000600027020008270200082702000827020008CC
:1000700027020008270200082702000827020008BC
:1000800027020008270200082702000827020008AC
:10009000270200082702000827020008270200089C
:1000A000270200082702000827020008270200088C
:1000B000270200082702000827020008270200087C
:1000C000270200082702000827020008270200086C
:1000D000270200082702000827020008270200085C
:1000E000270200082702000827020008270200084C
:1000F000270200082702000827020008270200083C
:10010000270200082702000827020008270200082B
:10011000270200082702000827020008270200081B
:10012000270200082702000827020008270200080B
:1001300027020008270200082702000827020008FB
:1001400027020008270200082702000827020008EB
:1001500027020008270200082702000827020008DB
:1001600027020008270200082702000827020008CB
:1001700027020008270200082702000800000000EC
:1001800027020008270200082702000827020008AB
:10019000270200082702000827020008270200089B
:1001A000270200082702000827020008270200088B
:1001B000270200082702000827020008270200087B
:1001C000270200082702000827020008270200086B
:1001D000270200082702000827020008270200085B
:1001E000270200082702000827020008270200084B
:1001F0002702000827020008DFF80CD000F068F89A
:1002000000480047AD1200086004002006488047FF
:1002100006480047FEE7FEE7FEE7FEE7FEE7FEE7EB
:10022000FEE7FEE7FEE7FEE739120008F9010008E5
:100230002DE9F05F0546002092469B46884606461B
:10024000814640241BE0284641464746224600F0AE
:100250002FF853465A46C01A914110D311461846FA
:10026000224600F016F82D1A67EB01084F46224689
:100270000120002100F00DF817EB00094E41201E6F
:10028000A4F10104DFDC484631462A464346BDE876
:10029000F09F202A04DB203A00FA02F10020704788
:1002A0009140C2F1200320FA03F3194390407047B4
:1002B000202A04DB203A21FA02F00021704721FABB
:1002C00002F3D040C2F12002914008431946704722
:1002D000064C074D06E0E06840F0010394E8070093
:1002E00098471034AC42F6D3FFF78AFF0813000892
:1002F0002813000849496FF0706210B5D1F8043333
:1003000023F44033C1F80433D1F804334468234361
:10031000C1F8043301684B6823F480734B600168B3
:1003200003694C6844EA03234B6001684B6823F07F
:1003300040734B60016884684B6823434B600168DD
:100340008B6823F400638B600168C4688B68234367
:100350008B60816AD14201688A6822F070628A608B
:1003600001680DD0836A8A681A438A6001688A68C6
:1003700022F040528A600168C36A8A681A4302E028
:100380008A6822F040528A6001688A6822F002027C
:100390008A60016882698B6843EA42028A60016A66
:1003A0000029016811D01E4A4B6843F400634B607A
:1003B00001684B6823F460434B600168446A4B68F2
:1003C00002EB443213434B6003E04A6822F40062BC
:1003D0004A600168134BCA6A22F47002CA6201685B
:1003E000848BCA6A03EB04531A43CA6201688A68A1
:1003F00022F400728A600168026B8B6843EA422231
:100400008A6001688A6822F480628A6001684069B3
:100410008A6842EA8020886010BD00000020014008
:1004200000E0FFFF0000F0FFFEE77047F8B5002591
:10043000009590F83C20012A18D0012280F83C2039
:100440000A6807234E4C0668092A1AD90A3A02EBB1
:100450004207F268BB409A43F2600E680268A64207
:1004600006D10B7AD66846EA036308E00220F8BD9D
:100470000A3E8B68D76806EB4606B3403B43D36021
:100480000EE002EB42073269BB409A4332610368D7
:100490000E788A681F6906EB4606B2403A431A6135
:1004A0004A681F23072A13D20668521E02EB8207EE
:1004B000726BBB409A43726303680E790A88761E9A
:1004C0005F6B92B206EB8606B2403A435A6327E06E
:1004D00006680D2A12D2D21F02EB8207326BBB4094
:1004E0009A43326302680E790B88F61F176B9BB232
:1004F00006EB8606B3403B43136311E00D3A02EB73
:100500008207F26ABB409A43F26202680E790B8856
:100510000D3ED76A9BB206EB8606B3403B43D362DF
:10052000184A0368934208D10B68122B05D1D2F800
:10053000043343F48003C2F80433036893421AD1AE
:100540000B68A34201D0112B15D1D2F8043343F428
:100550000003C2F804330968A1420CD10A490B4ACE
:100560000968B1FBF2F101EB8101490000E0491E8D
:1005700000910029FBD180F83C500020F8BD00001C
:1005800012000010002001401000002040420F0027
:100590000068C06C704770B504004FF0000503D0D0
:1005A000206C002610B107E0012070BD6664204673
:1005B00084F83C6000F01AF8206CC00610D4206C5F
:1005C00020F4885040F0020020642046FFF792FE9D
:1005D0006664206C20F0020040F00100206400E01E
:1005E000012584F83C60284670BD000000B5006815
:1005F00087B00B49884211D10A48016841F48071E3
:10060000016000680321002200F48070059004203E
:100610008DE807000448694600F0C6F807B000BD41
:100620000020014044380240000802402DE9F0411A
:10063000044600680D460027816849050BD580688F
:10064000C00508D5206C84F83C7040F02000206480
:100650000120BDE8F08100F09DF906460FE0681C1E
:100660000DD025B100F096F9801BA84207D9206C67
:1006700084F83C7040F0040020640320E9E720681F
:1006800000688007EBD521686FF012000860206CCD
:1006900040F4007020642068816811F0405F13D13D
:1006A000A16989B9C16A11F4700F02D08068400550
:1006B0000AD4206C20F480702064206CC00403D421
:1006C000206C40F0010020640020C2E718B5002231
:1006D000009290F83C10012907D0012180F83C10CD
:1006E00001688B68DB0702D011E0022018BD8C681E
:1006F000214B44F001048C6020490968B1FBF3F1FF
:1007000001EB410100E0491E00910029FBD1016885
:100710008B68DB072DD0036C40F20164A34343F4E4
:10072000807303644B685B0505D5036C23F40053A9
:1007300043F480530364036CDB0404D5436C23F05F
:100740000603436400E042646FF022040C4B80F81F
:100750003C200C60D3F804130068C90601D098420D
:1007600007D1816811F0405F03D1816841F0804179
:100770008160002018BD000040420F0010000020E2
:100780000020014070B5044600F004F90546601CE5
:1007900002D004480078044400F0FCF8401BA0425A
:1007A000FAD370BD040000202DE9F84FDFF89CE17A
:1007B00000224FF001084FF0030B4FF00F0A00BF6B
:1007C0000B6808FA02F42340A34271D14D68022D50
:1007D00001D0122D0FD1D5080E69570700EB850502
:1007E000A9462D6AFF0E0AFA07FCBE4025EA0C0551
:1007F0002E43C9F820600F79550006680BFA05FCF6
:1008000007F0030726EA0C06AF40374307604E683F
:10081000012E05D0022E03D0112E01D0122E0ED1A2
:100820008668CF6826EA0C06AF4037438760466883
:100830000F79A643C7F30017974037434760C46852
:100840008E6824EA0C04AE402643C6604C68E4007F
:1008500075D53F4C256845F480452560246822F015
:100860000306950704F4804400943A4C2D0F264467
:10087000D6F80848DFF8E0C00AFA05F7604524EA30
:10088000070401D100272EE0344FB84201D10127DF
:1008900029E0334FB84201D1022724E0314FB8425A
:1008A00001D103271FE0304FB84202D104271AE0DC
:1008B00045E02E4FB84201D1052714E02C4FB84235
:1008C00001D106270FE02B4FB84201D107270AE0DC
:1008D000294FB84201D1082705E0284FB84201D17D
:1008E000092700E00A27AF4027437546C6F8087875
:1008F0004E68DEF80040F60324EA030400D51C43EA
:10090000124E2C60361D4D683468AD0324EA030492
:1009100000D51C430D4F346008374D683C68ED022C
:1009200024EA030400D51C43084D3C600C354E6896
:100930002C68B60224EA030400D51C432C60521C28
:10094000102AFFF43DAFBDE8F88F0000003C0140E5
:1009500044380240003001400000024000040240E0
:1009600000080240000C0240001002400014024047
:1009700000180240001C02400020024000240240F7
:1009800042694A40426170470AB181617047090477
:10099000FBE7000001488068704700000400002069
:1009A0000248816802781144816070470400002089
:1009B000032010B500F08AF8002000F005F800F0E0
:1009C00023F8002010BD000070B50D4D04464FF413
:1009D0007A700C4A29781268B0FBF1F0B2FBF0F0A3
:1009E00000F035FB48B9102C07D200222146501EDA
:1009F00000F04CF800206C6070BD012070BD00005C
:100A000004000020100000201F4808B5016841F0D4
:100A100080510160006800F0805000901A48001D6D
:100A2000016841F480410160006800F4804000905A
:100A3000032000F04BF800226FF00B00114600F08D
:100A400025F800226FF00A00114600F01FF800227E
:100A50006FF00900114600F019F80022501F1146EE
:100A600000F014F80022101F114600F00FF80022C9
:100A7000901E114600F00AF80022BDE80840501E02
:100A8000114600F003B80000403802400E4BF0B4AD
:100A90001B680D46C3F30223C3F10706042E00D9D9
:100AA0000426191D072901D2002300E0DB1E0124C2
:100AB00004FA06F19C40491E2940641E99401440E6
:100AC0002143F0BC00F04ABB0CED00E0064900F009
:100AD000070210B54FF6FF040868044B204040EAB7
:100AE00002201843086010BD0CED00E00000FA057C
:100AF0001848F8B5016841F0805101600068164C53
:100B000000F080500090206840F480302060FFF7B3
:100B100041FF4FF47A76054605E000BFFFF73AFF44
:100B2000401BB0420FD86068C003F7D5206840F47E
:100B300000302060FFF72EFF054606E0FFF72AFF92
:100B4000401BB04201D90320F8BD60688003F5D591
:100B50000020F8BD40380240007000402DE9F04709
:100B600005000F4663D0444E306800F00F00B842D5
:100B700009D2306820F00F0038433060306800F050
:100B80000F00B84253D128683C4C810712D540076A
:100B900003D5206840F4E05020602878000703D592
:100BA000206840F460402060A968206820F0F000D0
:100BB000084320602878C0072AD03049686808397F
:100BC000012810D00968022810D0890700292EDAE0
:100BD000216821F0030101432160FFF7DBFE80461D
:100BE00041F288390DE009688903EFE78901EDE7F3
:100BF000FFF7D0FEA0EB0801494502D90320BDE86C
:100C0000F0876868216801F00C01B1EB800FEFD12B
:100C1000306800F00F00B8420BD9306820F00F00A8
:100C200038433060306800F00F00B84201D0012036
:100C3000E5E72878400705D5E968206820F4E0500A
:100C4000084320602878000706D52869216821F428
:100C5000604141EAC000206000F01CF82168084AA9
:100C6000C1F30311515CC840064908600020FFF73A
:100C7000ABFE0020C3E70000003C02400838024001
:100C8000F8120008100000200148006870470000BA
:100C900010000020154910B51548096811F00C0224
:100CA00013D01449042A0FD0082A0ED10F4C241F48
:100CB0002268236802F03F025B0207D52068C0F378
:100CC0008810A0FB010106E0084610BD2168C1F3B1
:100CD0008811A1FB00010023FFF7AAFA2168C1F3E4
:100CE0000141491C4900B0FBF1F010BD0838024039
:100CF0000024F40040787D012DE9F84F05004FF005
:100D000000076ED02878DFF82093A9F1040AC00705
:100D1000AAF104044CD0D9F800104846C1F381016F
:100D2000012908D00068C0F3810002280AD1DAF84E
:100D30000000400206D52068800339D56868002885
:100D4000DFD035E06868B0F5803F0BD010B1B0F56A
:100D5000A02F11D0206820F480302060206820F47B
:100D6000802002E0206840F480302060686890B104
:100D7000FFF710FE06460AE0206840F4802020605D
:100D8000F0E700BFFFF706FE801B642872D82068DA
:100D90008003F7D50CE0FFF7FDFD064605E000BF38
:100DA000FFF7F8FD801B6428F0D820688003F7D493
:100DB0002878800742D5D9F80010484611F00C0F6A
:100DC00008D00068C0F3810002280BD1DAF80000D7
:100DD000400207D42068800718D5E868012800D1B0
:100DE00014E01EE1E8680028206817D040F00100F8
:100DF0002060FFF7CFFD064605E000BFFFF7CAFD04
:100E0000801B0228C2D820688007F7D5286921688E
:100E100021F0F80141EAC00020600FE020F001005D
:100E20002060FFF7B7FD064605E000BFFFF7B2FD03
:100E3000801B02281ED820688007F7D42878000776
:100E400029D5794869696C3000298046016812D03B
:100E500041F001010160FFF79DFD064605E000BF7E
:100E6000FFF798FD801B022804D8D8F800008007FF
:100E7000F6D510E089E021F001010160FFF78AFD5D
:100E8000064604E0FFF786FD801B02287DD8D8F8CF
:100E900000008007F6D4287840076BD5DFF88881FA
:100EA00008F13808D8F80000C0000BD4D8F80010BA
:100EB00041F08051C8F80010D8F80000012700F078
:100EC0008050009059480168C90512D401688346D2
:100ED00041F480710160FFF75DFD064605E000BF4B
:100EE000FFF758FD801B64284FD8DBF80000C005D1
:100EF000F6D54D4EA868683601280AD008B10528F5
:100F000011D0306820F001003060306820F004001B
:100F100002E0306840F001003060A868A0B1FFF73F
:100F200039FD83460CE0306840F004003060F0E7A3
:100F3000FFF730FDA0EB0B0141F28830814268D809
:100F400030688007F4D50EE0FFF724FD834607E004
:100F5000FFF720FDA0EB0B0141F28830814258D809
:100F600030688007F4D42FB1D8F8001021F08051F8
:100F7000C8F80010A869E0B3D9F80010C1F38101E6
:100F800002294ED00228206800E042E020F0807064
:100F9000206003D0FFF7FEFC05463DE0FFF7FAFCBA
:100FA000064604E0FFF7F6FC801B022831D82068D3
:100FB0008001F7D4D5E90921DFF874C0D5E9070627
:100FC00095F830304F0895F82C1030430CEB07455E
:100FD00045EA8212104340EA016040EA0370CAF811
:100FE0000000206840F080702060FFF7D3FC0546C9
:100FF00005E014E0FFF7CEFC401B022809D820686A
:101000008001F7D50BE000BFFFF7C4FC401B0228AE
:1010100002D90320BDE8F88F20688001F4D40020B5
:10102000F8E70120F6E700000838024000700040B1
:101030000000FFFF04284FF0E020016903D021F0F9
:1010400004010161704741F00401FAE77047401E56
:10105000B0F1807F10B501D3012010BD4FF0E02426
:1010600060610F21601700F079F80020A06107216E
:10107000216110BD10B5FFF7E9FF10BDFEE70000CC
:101080007FB512480024104901252A040160C0E9F7
:101090000124046185610E490462C0E90A14C46038
:1010A0000463C5614461FFF776FA00B1FEE70C20E6
:1010B0006946CDE9000505480294FFF7B7F9002815
:1010C00000D0FEE77FBD000000200140140000209A
:1010D0000100000F1E4870B586B0016841F00401A0
:1010E0000160016801F004010591016841F001010E
:1010F000016000680022174E402100F001000590B9
:101100003046FFF741FC012230464021FFF73CFC0E
:101110000221002410200090CDE9014169463046AB
:10112000FFF742FB0125694640200090CDE90154BC
:1011300030460394FFF738FB28030090CDE90154B3
:10114000694630460394FFF72FFB06B070BD0000E0
:101150003038024000000240FEE7704709070028CF
:101160004FEA116106DA00F00F0000F1E02080F88C
:10117000141D704700F1E02080F80014704770479C
:10118000704710B5FFF70CFCBDE81040FFF772BFC9
:10119000274830B593B0016841F080510160006884
:1011A00000F0805012902348016841F440410160F2
:1011B000006800250DF1200C022400940822D82399
:1011C000CDE9064500F44040129010218CE81C0047
:1011D00001200B94CDE903016846FFF78DFD00B1B6
:1011E000FEE7FFF785FC00B1FEE74FF480524FF4B5
:1011F000A0510F20CDE910120DAA072182E831007D
:101200000DA8FFF7ABFC00B1FEE7FFF73DFD4FF483
:101210007A71B0FBF1F0FFF71AFF0420FFF70AFF25
:101220000022501E1146FFF731FC13B030BD000004
:101230004038024000700040104A30B51048146831
:1012400000210F4B44F470041460083305680D4A04
:101250000D4C45F00105056019600368051D13403C
:10126000074A03600C322C600568E305034C25F443
:1012700080250560803C1160236030BD88ED00E072
:1012800000380240FFFFF6FE10300024FEE702E0C7
:1012900008C8121F08C1002AFAD170477047002001
:1012A00001E001C1121F002AFBD17047FFF780FB4C
:1012B000FFF76EFFFFF70EFFFFF7E2FE0B48FFF7A9
:1012C00005FA0B4D0B4C40212846FFF759FB2088AF
:1012D000FFF758FA05480521FFF7A8F90028F2D1D1
:1012E0000248FFF755F914302080ECE71400002085
:1012F000000002400000002000000000000000008C
:101300000102030406070809281300080000002052
:10131000140000008E1200083C1300081400002086
:101320004C0400009E120008E803000001000000C9
:0C13300010000000000000000024F40089
:04000005080001F9F5
:00000001FF
